{
  "_format": "hh-sol-artifact-1",
  "contractName": "Casino",
  "sourceName": "src/backend/contracts/Casino.sol",
  "abi": [
    {
      "inputs": [],
      "stateMutability": "nonpayable",
      "type": "constructor"
    },
    {
      "anonymous": false,
      "inputs": [
        {
          "indexed": true,
          "internalType": "address",
          "name": "previousOwner",
          "type": "address"
        },
        {
          "indexed": true,
          "internalType": "address",
          "name": "newOwner",
          "type": "address"
        }
      ],
      "name": "OwnershipTransferred",
      "type": "event"
    },
    {
      "inputs": [],
      "name": "balanceEthersSC",
      "outputs": [
        {
          "internalType": "uint256",
          "name": "",
          "type": "uint256"
        }
      ],
      "stateMutability": "view",
      "type": "function"
    },
    {
      "inputs": [
        {
          "internalType": "uint256",
          "name": "_numTokens",
          "type": "uint256"
        }
      ],
      "name": "compraTokens",
      "outputs": [],
      "stateMutability": "payable",
      "type": "function"
    },
    {
      "inputs": [
        {
          "internalType": "uint256",
          "name": "_numTokens",
          "type": "uint256"
        }
      ],
      "name": "devolverTokens",
      "outputs": [],
      "stateMutability": "payable",
      "type": "function"
    },
    {
      "inputs": [
        {
          "internalType": "uint256",
          "name": "_start",
          "type": "uint256"
        },
        {
          "internalType": "uint256",
          "name": "_end",
          "type": "uint256"
        },
        {
          "internalType": "uint256",
          "name": "_tokensBet",
          "type": "uint256"
        }
      ],
      "name": "jugarRuleta",
      "outputs": [
        {
          "components": [
            {
              "internalType": "uint256",
              "name": "NumberWin",
              "type": "uint256"
            },
            {
              "internalType": "bool",
              "name": "result",
              "type": "bool"
            },
            {
              "internalType": "uint256",
              "name": "tokensEarned",
              "type": "uint256"
            }
          ],
          "internalType": "struct Casino.RouleteResult",
          "name": "returned",
          "type": "tuple"
        }
      ],
      "stateMutability": "nonpayable",
      "type": "function"
    },
    {
      "inputs": [],
      "name": "owner",
      "outputs": [
        {
          "internalType": "address",
          "name": "",
          "type": "address"
        }
      ],
      "stateMutability": "view",
      "type": "function"
    },
    {
      "inputs": [
        {
          "internalType": "uint256",
          "name": "_numTokens",
          "type": "uint256"
        }
      ],
      "name": "precioTokens",
      "outputs": [
        {
          "internalType": "uint256",
          "name": "",
          "type": "uint256"
        }
      ],
      "stateMutability": "pure",
      "type": "function"
    },
    {
      "inputs": [],
      "name": "renounceOwnership",
      "outputs": [],
      "stateMutability": "nonpayable",
      "type": "function"
    },
    {
      "inputs": [
        {
          "internalType": "uint256",
          "name": "_numEther",
          "type": "uint256"
        }
      ],
      "name": "retirarEth",
      "outputs": [],
      "stateMutability": "payable",
      "type": "function"
    },
    {
      "inputs": [],
      "name": "tokenAddress",
      "outputs": [
        {
          "internalType": "address",
          "name": "",
          "type": "address"
        }
      ],
      "stateMutability": "view",
      "type": "function"
    },
    {
      "inputs": [
        {
          "internalType": "address",
          "name": "_of",
          "type": "address"
        }
      ],
      "name": "tokenBalance",
      "outputs": [
        {
          "internalType": "uint256",
          "name": "",
          "type": "uint256"
        }
      ],
      "stateMutability": "view",
      "type": "function"
    },
    {
      "inputs": [
        {
          "internalType": "address",
          "name": "newOwner",
          "type": "address"
        }
      ],
      "name": "transferOwnership",
      "outputs": [],
      "stateMutability": "nonpayable",
      "type": "function"
    },
    {
      "inputs": [
        {
          "internalType": "address",
          "name": "_propietario",
          "type": "address"
        }
      ],
      "name": "tuHistorial",
      "outputs": [
        {
          "components": [
            {
              "internalType": "uint256",
              "name": "tokensBet",
              "type": "uint256"
            },
            {
              "internalType": "uint256",
              "name": "tokensEarned",
              "type": "uint256"
            },
            {
              "internalType": "string",
              "name": "game",
              "type": "string"
            }
          ],
          "internalType": "struct Casino.Bet[]",
          "name": "",
          "type": "tuple[]"
        }
      ],
      "stateMutability": "view",
      "type": "function"
    }
  ],
  "bytecode": "0x60806040523480156200001157600080fd5b506200003262000026620001c960201b60201c565b620001d160201b60201c565b604051620000409062000295565b6200004b9062000362565b604051809103906000f08015801562000068573d6000803e3d6000fd5b50600160006101000a81548173ffffffffffffffffffffffffffffffffffffffff021916908373ffffffffffffffffffffffffffffffffffffffff160217905550600160009054906101000a900473ffffffffffffffffffffffffffffffffffffffff16600260006101000a81548173ffffffffffffffffffffffffffffffffffffffff021916908373ffffffffffffffffffffffffffffffffffffffff160217905550600160009054906101000a900473ffffffffffffffffffffffffffffffffffffffff1673ffffffffffffffffffffffffffffffffffffffff1663a0712d68620f42406040518263ffffffff1660e01b81526004016200016c919062000345565b602060405180830381600087803b1580156200018757600080fd5b505af11580156200019c573d6000803e3d6000fd5b505050506040513d601f19601f82011682018060405250810190620001c29190620002ba565b5062000440565b600033905090565b60008060009054906101000a900473ffffffffffffffffffffffffffffffffffffffff169050816000806101000a81548173ffffffffffffffffffffffffffffffffffffffff021916908373ffffffffffffffffffffffffffffffffffffffff1602179055508173ffffffffffffffffffffffffffffffffffffffff168173ffffffffffffffffffffffffffffffffffffffff167f8be0079c531659141344cd1fd0a4f28419497f9722a3daafe3b4186f6b6457e060405160405180910390a35050565b61121280620023e983390190565b600081519050620002b48162000426565b92915050565b600060208284031215620002cd57600080fd5b6000620002dd84828501620002a3565b91505092915050565b620002f181620003c0565b82525050565b60006200030660068362000399565b91506200031382620003d4565b602082019050919050565b60006200032d60038362000399565b91506200033a82620003fd565b602082019050919050565b60006020820190506200035c6000830184620002e6565b92915050565b600060408201905081810360008301526200037d81620002f7565b9050818103602083015262000392816200031e565b9050919050565b600082825260208201905092915050565b60008115159050919050565b6000819050919050565b6000620003cd82620003b6565b9050919050565b7f436173696e6f0000000000000000000000000000000000000000000000000000600082015250565b7f4341530000000000000000000000000000000000000000000000000000000000600082015250565b6200043181620003aa565b81146200043d57600080fd5b50565b611f9980620004506000396000f3fe6080604052600436106100a75760003560e01c80639d76ea58116100645780639d76ea58146101a0578063b934c384146101cb578063c29dd7c9146101f6578063df54096714610212578063eedc966a1461024f578063f2fde38b1461028c576100a7565b806321a10444146100ac5780632e95161c146100e95780633897b0bc146101055780635f375c6c14610121578063715018a61461015e5780638da5cb5b14610175575b600080fd5b3480156100b857600080fd5b506100d360048036038101906100ce919061169c565b6102b5565b6040516100e09190611a88565b60405180910390f35b61010360048036038101906100fe919061164a565b610742565b005b61011f600480360381019061011a919061164a565b610976565b005b34801561012d57600080fd5b506101486004803603810190610143919061164a565b610ad0565b6040516101559190611aa3565b60405180910390f35b34801561016a57600080fd5b50610173610aec565b005b34801561018157600080fd5b5061018a610b74565b6040516101979190611972565b60405180910390f35b3480156101ac57600080fd5b506101b5610b9d565b6040516101c29190611972565b60405180910390f35b3480156101d757600080fd5b506101e0610bc3565b6040516101ed9190611aa3565b60405180910390f35b610210600480360381019061020b919061164a565b610bde565b005b34801561021e57600080fd5b50610239600480360381019061023491906115f8565b610eb3565b60405161024691906119c4565b60405180910390f35b34801561025b57600080fd5b50610276600480360381019061027191906115f8565b610ff7565b6040516102839190611aa3565b60405180910390f35b34801561029857600080fd5b506102b360048036038101906102ae91906115f8565b6110ab565b005b6102bd6114de565b600160009054906101000a900473ffffffffffffffffffffffffffffffffffffffff1673ffffffffffffffffffffffffffffffffffffffff166370a08231336040518263ffffffff1660e01b81526004016103189190611972565b60206040518083038186803b15801561033057600080fd5b505afa158015610344573d6000803e3d6000fd5b505050506040513d601f19601f820116820180604052508101906103689190611673565b82111561037457600080fd5b6000821161038157600080fd5b6000600e426040516020016103969190611957565b6040516020818303038152906040528051906020012060001c6103b99190611d39565b9050600080600160009054906101000a900473ffffffffffffffffffffffffffffffffffffffff1673ffffffffffffffffffffffffffffffffffffffff1663beabacc83330886040518463ffffffff1660e01b815260040161041d9392919061198d565b602060405180830381600087803b15801561043757600080fd5b505af115801561044b573d6000803e3d6000fd5b505050506040513d601f19601f8201168201806040525081019061046f9190611621565b508583111580156104805750868310155b156106d8576001905060008314156104a657600e8561049f9190611bab565b91506104b6565b6002856104b39190611bab565b91505b81600160009054906101000a900473ffffffffffffffffffffffffffffffffffffffff1673ffffffffffffffffffffffffffffffffffffffff166370a08231306040518263ffffffff1660e01b81526004016105129190611972565b60206040518083038186803b15801561052a57600080fd5b505afa15801561053e573d6000803e3d6000fd5b505050506040513d601f19601f820116820180604052508101906105629190611673565b101561062557600160009054906101000a900473ffffffffffffffffffffffffffffffffffffffff1673ffffffffffffffffffffffffffffffffffffffff1663a0712d68620186a0846105b59190611bab565b6040518263ffffffff1660e01b81526004016105d19190611aa3565b602060405180830381600087803b1580156105eb57600080fd5b505af11580156105ff573d6000803e3d6000fd5b505050506040513d601f19601f820116820180604052508101906106239190611621565b505b600160009054906101000a900473ffffffffffffffffffffffffffffffffffffffff1673ffffffffffffffffffffffffffffffffffffffff1663beabacc83033856040518463ffffffff1660e01b81526004016106849392919061198d565b602060405180830381600087803b15801561069e57600080fd5b505af11580156106b2573d6000803e3d6000fd5b505050506040513d601f19601f820116820180604052508101906106d69190611621565b505b6107196040518060400160405280600781526020017f526f756c657465000000000000000000000000000000000000000000000000008152508684336111a3565b604051806060016040528084815260200182151581526020018381525093505050509392505050565b60008111610785576040517f08c379a000000000000000000000000000000000000000000000000000000000815260040161077c90611a28565b60405180910390fd5b600160009054906101000a900473ffffffffffffffffffffffffffffffffffffffff1673ffffffffffffffffffffffffffffffffffffffff166370a08231336040518263ffffffff1660e01b81526004016107e09190611972565b60206040518083038186803b1580156107f857600080fd5b505afa15801561080c573d6000803e3d6000fd5b505050506040513d601f19601f820116820180604052508101906108309190611673565b811115610872576040517f08c379a000000000000000000000000000000000000000000000000000000000815260040161086990611a68565b60405180910390fd5b600160009054906101000a900473ffffffffffffffffffffffffffffffffffffffff1673ffffffffffffffffffffffffffffffffffffffff1663beabacc83330846040518463ffffffff1660e01b81526004016108d19392919061198d565b602060405180830381600087803b1580156108eb57600080fd5b505af11580156108ff573d6000803e3d6000fd5b505050506040513d601f19601f820116820180604052508101906109239190611621565b503373ffffffffffffffffffffffffffffffffffffffff166108fc61094783610ad0565b9081150290604051600060405180830381858888f19350505050158015610972573d6000803e3d6000fd5b5050565b61097e611265565b73ffffffffffffffffffffffffffffffffffffffff1661099c610b74565b73ffffffffffffffffffffffffffffffffffffffff16146109f2576040517f08c379a00000000000000000000000000000000000000000000000000000000081526004016109e990611a48565b60405180910390fd5b60008111610a35576040517f08c379a0000000000000000000000000000000000000000000000000000000008152600401610a2c90611a28565b60405180910390fd5b610a3d610bc3565b811115610a7f576040517f08c379a0000000000000000000000000000000000000000000000000000000008152600401610a7690611a68565b60405180910390fd5b610a87610b74565b73ffffffffffffffffffffffffffffffffffffffff166108fc829081150290604051600060405180830381858888f19350505050158015610acc573d6000803e3d6000fd5b5050565b600066038d7ea4c6800082610ae59190611bab565b9050919050565b610af4611265565b73ffffffffffffffffffffffffffffffffffffffff16610b12610b74565b73ffffffffffffffffffffffffffffffffffffffff1614610b68576040517f08c379a0000000000000000000000000000000000000000000000000000000008152600401610b5f90611a48565b60405180910390fd5b610b72600061126d565b565b60008060009054906101000a900473ffffffffffffffffffffffffffffffffffffffff16905090565b600260009054906101000a900473ffffffffffffffffffffffffffffffffffffffff1681565b6000670de0b6b3a764000047610bd99190611b7a565b905090565b610be781610ad0565b341015610bf334611331565b90610c34576040517f08c379a0000000000000000000000000000000000000000000000000000000008152600401610c2b91906119e6565b60405180910390fd5b5080600160009054906101000a900473ffffffffffffffffffffffffffffffffffffffff1673ffffffffffffffffffffffffffffffffffffffff166370a08231306040518263ffffffff1660e01b8152600401610c919190611972565b60206040518083038186803b158015610ca957600080fd5b505afa158015610cbd573d6000803e3d6000fd5b505050506040513d601f19601f82011682018060405250810190610ce19190611673565b1015610da457600160009054906101000a900473ffffffffffffffffffffffffffffffffffffffff1673ffffffffffffffffffffffffffffffffffffffff1663a0712d68620186a083610d349190611bab565b6040518263ffffffff1660e01b8152600401610d509190611aa3565b602060405180830381600087803b158015610d6a57600080fd5b505af1158015610d7e573d6000803e3d6000fd5b505050506040513d601f19601f82011682018060405250810190610da29190611621565b505b3373ffffffffffffffffffffffffffffffffffffffff166108fc610dc783610ad0565b34610dd29190611c05565b9081150290604051600060405180830381858888f19350505050158015610dfd573d6000803e3d6000fd5b50600160009054906101000a900473ffffffffffffffffffffffffffffffffffffffff1673ffffffffffffffffffffffffffffffffffffffff1663beabacc83033846040518463ffffffff1660e01b8152600401610e5d9392919061198d565b602060405180830381600087803b158015610e7757600080fd5b505af1158015610e8b573d6000803e3d6000fd5b505050506040513d601f19601f82011682018060405250810190610eaf9190611621565b5050565b6060600360008373ffffffffffffffffffffffffffffffffffffffff1673ffffffffffffffffffffffffffffffffffffffff168152602001908152602001600020805480602002602001604051908101604052809291908181526020016000905b82821015610fec57838290600052602060002090600302016040518060600160405290816000820154815260200160018201548152602001600282018054610f5b90611cb4565b80601f0160208091040260200160405190810160405280929190818152602001828054610f8790611cb4565b8015610fd45780601f10610fa957610100808354040283529160200191610fd4565b820191906000526020600020905b815481529060010190602001808311610fb757829003601f168201915b50505050508152505081526020019060010190610f14565b505050509050919050565b6000600160009054906101000a900473ffffffffffffffffffffffffffffffffffffffff1673ffffffffffffffffffffffffffffffffffffffff166370a08231836040518263ffffffff1660e01b81526004016110549190611972565b60206040518083038186803b15801561106c57600080fd5b505afa158015611080573d6000803e3d6000fd5b505050506040513d601f19601f820116820180604052508101906110a49190611673565b9050919050565b6110b3611265565b73ffffffffffffffffffffffffffffffffffffffff166110d1610b74565b73ffffffffffffffffffffffffffffffffffffffff1614611127576040517f08c379a000000000000000000000000000000000000000000000000000000000815260040161111e90611a48565b60405180910390fd5b600073ffffffffffffffffffffffffffffffffffffffff168173ffffffffffffffffffffffffffffffffffffffff161415611197576040517f08c379a000000000000000000000000000000000000000000000000000000000815260040161118e90611a08565b60405180910390fd5b6111a08161126d565b50565b60006040518060600160405280858152602001848152602001868152509050600360008373ffffffffffffffffffffffffffffffffffffffff1673ffffffffffffffffffffffffffffffffffffffff1681526020019081526020016000208190806001815401808255809150506001900390600052602060002090600302016000909190919091506000820151816000015560208201518160010155604082015181600201908051906020019061125b929190611501565b5050505050505050565b600033905090565b60008060009054906101000a900473ffffffffffffffffffffffffffffffffffffffff169050816000806101000a81548173ffffffffffffffffffffffffffffffffffffffff021916908373ffffffffffffffffffffffffffffffffffffffff1602179055508173ffffffffffffffffffffffffffffffffffffffff168173ffffffffffffffffffffffffffffffffffffffff167f8be0079c531659141344cd1fd0a4f28419497f9722a3daafe3b4186f6b6457e060405160405180910390a35050565b60606000821415611379576040518060400160405280600181526020017f300000000000000000000000000000000000000000000000000000000000000081525090506114d9565b600082905060005b600082146113ab57808061139490611ce6565b915050600a826113a49190611b7a565b9150611381565b60008167ffffffffffffffff8111156113ed577f4e487b7100000000000000000000000000000000000000000000000000000000600052604160045260246000fd5b6040519080825280601f01601f19166020018201604052801561141f5781602001600182028036833780820191505090505b5090505b600085146114d2576001826114389190611c05565b9150600a856114479190611d39565b60306114539190611b24565b60f81b81838151811061148f577f4e487b7100000000000000000000000000000000000000000000000000000000600052603260045260246000fd5b60200101907effffffffffffffffffffffffffffffffffffffffffffffffffffffffffffff1916908160001a905350600a856114cb9190611b7a565b9450611423565b8093505050505b919050565b604051806060016040528060008152602001600015158152602001600081525090565b82805461150d90611cb4565b90600052602060002090601f01602090048101928261152f5760008555611576565b82601f1061154857805160ff1916838001178555611576565b82800160010185558215611576579182015b8281111561157557825182559160200191906001019061155a565b5b5090506115839190611587565b5090565b5b808211156115a0576000816000905550600101611588565b5090565b6000813590506115b381611f1e565b92915050565b6000815190506115c881611f35565b92915050565b6000813590506115dd81611f4c565b92915050565b6000815190506115f281611f4c565b92915050565b60006020828403121561160a57600080fd5b6000611618848285016115a4565b91505092915050565b60006020828403121561163357600080fd5b6000611641848285016115b9565b91505092915050565b60006020828403121561165c57600080fd5b600061166a848285016115ce565b91505092915050565b60006020828403121561168557600080fd5b6000611693848285016115e3565b91505092915050565b6000806000606084860312156116b157600080fd5b60006116bf868287016115ce565b93505060206116d0868287016115ce565b92505060406116e1868287016115ce565b9150509250925092565b60006116f78383611890565b905092915050565b61170881611c39565b82525050565b600061171982611ace565b6117238185611af1565b93508360208202850161173585611abe565b8060005b85811015611771578484038952815161175285826116eb565b945061175d83611ae4565b925060208a01995050600181019050611739565b50829750879550505050505092915050565b61178c81611c4b565b82525050565b600061179d82611ad9565b6117a78185611b02565b93506117b7818560208601611c81565b6117c081611df7565b840191505092915050565b60006117d682611ad9565b6117e08185611b13565b93506117f0818560208601611c81565b6117f981611df7565b840191505092915050565b6000611811602683611b13565b915061181c82611e08565b604082019050919050565b6000611834603083611b13565b915061183f82611e57565b604082019050919050565b6000611857602083611b13565b915061186282611ea6565b602082019050919050565b600061187a602883611b13565b915061188582611ecf565b604082019050919050565b60006060830160008301516118a86000860182611922565b5060208301516118bb6020860182611922565b50604083015184820360408601526118d38282611792565b9150508091505092915050565b6060820160008201516118f66000850182611922565b5060208201516119096020850182611783565b50604082015161191c6040850182611922565b50505050565b61192b81611c77565b82525050565b61193a81611c77565b82525050565b61195161194c82611c77565b611d2f565b82525050565b60006119638284611940565b60208201915081905092915050565b600060208201905061198760008301846116ff565b92915050565b60006060820190506119a260008301866116ff565b6119af60208301856116ff565b6119bc6040830184611931565b949350505050565b600060208201905081810360008301526119de818461170e565b905092915050565b60006020820190508181036000830152611a0081846117cb565b905092915050565b60006020820190508181036000830152611a2181611804565b9050919050565b60006020820190508181036000830152611a4181611827565b9050919050565b60006020820190508181036000830152611a618161184a565b9050919050565b60006020820190508181036000830152611a818161186d565b9050919050565b6000606082019050611a9d60008301846118e0565b92915050565b6000602082019050611ab86000830184611931565b92915050565b6000819050602082019050919050565b600081519050919050565b600081519050919050565b6000602082019050919050565b600082825260208201905092915050565b600082825260208201905092915050565b600082825260208201905092915050565b6000611b2f82611c77565b9150611b3a83611c77565b9250827fffffffffffffffffffffffffffffffffffffffffffffffffffffffffffffffff03821115611b6f57611b6e611d6a565b5b828201905092915050565b6000611b8582611c77565b9150611b9083611c77565b925082611ba057611b9f611d99565b5b828204905092915050565b6000611bb682611c77565b9150611bc183611c77565b9250817fffffffffffffffffffffffffffffffffffffffffffffffffffffffffffffffff0483118215151615611bfa57611bf9611d6a565b5b828202905092915050565b6000611c1082611c77565b9150611c1b83611c77565b925082821015611c2e57611c2d611d6a565b5b828203905092915050565b6000611c4482611c57565b9050919050565b60008115159050919050565b600073ffffffffffffffffffffffffffffffffffffffff82169050919050565b6000819050919050565b60005b83811015611c9f578082015181840152602081019050611c84565b83811115611cae576000848401525b50505050565b60006002820490506001821680611ccc57607f821691505b60208210811415611ce057611cdf611dc8565b5b50919050565b6000611cf182611c77565b91507fffffffffffffffffffffffffffffffffffffffffffffffffffffffffffffffff821415611d2457611d23611d6a565b5b600182019050919050565b6000819050919050565b6000611d4482611c77565b9150611d4f83611c77565b925082611d5f57611d5e611d99565b5b828206905092915050565b7f4e487b7100000000000000000000000000000000000000000000000000000000600052601160045260246000fd5b7f4e487b7100000000000000000000000000000000000000000000000000000000600052601260045260246000fd5b7f4e487b7100000000000000000000000000000000000000000000000000000000600052602260045260246000fd5b6000601f19601f8301169050919050565b7f4f776e61626c653a206e6577206f776e657220697320746865207a65726f206160008201527f6464726573730000000000000000000000000000000000000000000000000000602082015250565b7f4e6563657369746173206465766f6c76657220756e206e756d65726f2064652060008201527f746f6b656e73206d61796f722061203000000000000000000000000000000000602082015250565b7f4f776e61626c653a2063616c6c6572206973206e6f7420746865206f776e6572600082015250565b7f4e6f207469656e6573206c6f7320746f6b656e7320717565206465736561732060008201527f6465766f6c766572000000000000000000000000000000000000000000000000602082015250565b611f2781611c39565b8114611f3257600080fd5b50565b611f3e81611c4b565b8114611f4957600080fd5b50565b611f5581611c77565b8114611f6057600080fd5b5056fea2646970667358221220112d423a61c038aef504d648f6c1b554acbcace2a34e032f49c67538a96a11d164736f6c6343000804003360806040523480156200001157600080fd5b5060405162001212380380620012128339818101604052810190620000379190620001d4565b81600290805190602001906200004f929190620000b2565b50806003908051906020019062000068929190620000b2565b5033600460006101000a81548173ffffffffffffffffffffffffffffffffffffffff021916908373ffffffffffffffffffffffffffffffffffffffff1602179055505050620003b7565b828054620000c090620002dc565b90600052602060002090601f016020900481019282620000e4576000855562000130565b82601f10620000ff57805160ff191683800117855562000130565b8280016001018555821562000130579182015b828111156200012f57825182559160200191906001019062000112565b5b5090506200013f919062000143565b5090565b5b808211156200015e57600081600090555060010162000144565b5090565b600062000179620001738462000270565b62000247565b9050828152602081018484840111156200019257600080fd5b6200019f848285620002a6565b509392505050565b600082601f830112620001b957600080fd5b8151620001cb84826020860162000162565b91505092915050565b60008060408385031215620001e857600080fd5b600083015167ffffffffffffffff8111156200020357600080fd5b6200021185828601620001a7565b925050602083015167ffffffffffffffff8111156200022f57600080fd5b6200023d85828601620001a7565b9150509250929050565b60006200025362000266565b905062000261828262000312565b919050565b6000604051905090565b600067ffffffffffffffff8211156200028e576200028d62000377565b5b6200029982620003a6565b9050602081019050919050565b60005b83811015620002c6578082015181840152602081019050620002a9565b83811115620002d6576000848401525b50505050565b60006002820490506001821680620002f557607f821691505b602082108114156200030c576200030b62000348565b5b50919050565b6200031d82620003a6565b810181811067ffffffffffffffff821117156200033f576200033e62000377565b5b80604052505050565b7f4e487b7100000000000000000000000000000000000000000000000000000000600052602260045260246000fd5b7f4e487b7100000000000000000000000000000000000000000000000000000000600052604160045260246000fd5b6000601f19601f8301169050919050565b610e4b80620003c76000396000f3fe608060405234801561001057600080fd5b50600436106100885760003560e01c80638da5cb5b1161005b5780638da5cb5b1461011757806395d89b4114610135578063a0712d6814610153578063beabacc81461018357610088565b806306fdde031461008d57806318160ddd146100ab578063313ce567146100c957806370a08231146100e7575b600080fd5b6100956101b3565b6040516100a291906109ef565b60405180910390f35b6100b3610245565b6040516100c09190610ab1565b60405180910390f35b6100d161024f565b6040516100de9190610acc565b60405180910390f35b61010160048036038101906100fc91906107f4565b610258565b60405161010e9190610ab1565b60405180910390f35b61011f6102a0565b60405161012c91906109b9565b60405180910390f35b61013d6102c6565b60405161014a91906109ef565b60405180910390f35b61016d6004803603810190610168919061086c565b610358565b60405161017a91906109d4565b60405180910390f35b61019d6004803603810190610198919061081d565b6103ff565b6040516101aa91906109d4565b60405180910390f35b6060600280546101c290610be1565b80601f01602080910402602001604051908101604052809291908181526020018280546101ee90610be1565b801561023b5780601f106102105761010080835404028352916020019161023b565b820191906000526020600020905b81548152906001019060200180831161021e57829003601f168201915b5050505050905090565b6000600154905090565b60006012905090565b60008060008373ffffffffffffffffffffffffffffffffffffffff1673ffffffffffffffffffffffffffffffffffffffff168152602001908152602001600020549050919050565b600460009054906101000a900473ffffffffffffffffffffffffffffffffffffffff1681565b6060600380546102d590610be1565b80601f016020809104026020016040519081016040528092919081815260200182805461030190610be1565b801561034e5780601f106103235761010080835404028352916020019161034e565b820191906000526020600020905b81548152906001019060200180831161033157829003601f168201915b5050505050905090565b600033600460009054906101000a900473ffffffffffffffffffffffffffffffffffffffff1673ffffffffffffffffffffffffffffffffffffffff168173ffffffffffffffffffffffffffffffffffffffff16146103eb576040517f08c379a00000000000000000000000000000000000000000000000000000000081526004016103e290610a51565b60405180910390fd5b6103f53384610417565b6001915050919050565b600061040c84848461055f565b600190509392505050565b600073ffffffffffffffffffffffffffffffffffffffff168273ffffffffffffffffffffffffffffffffffffffff161415610487576040517f08c379a000000000000000000000000000000000000000000000000000000000815260040161047e90610a91565b60405180910390fd5b80600160008282546104999190610b03565b92505081905550806000808473ffffffffffffffffffffffffffffffffffffffff1673ffffffffffffffffffffffffffffffffffffffff16815260200190815260200160002060008282546104ee9190610b03565b925050819055508173ffffffffffffffffffffffffffffffffffffffff16600073ffffffffffffffffffffffffffffffffffffffff167fddf252ad1be2c89b69c2b068fc378daa952ba7f163c4a11628f55a4df523b3ef836040516105539190610ab1565b60405180910390a35050565b600073ffffffffffffffffffffffffffffffffffffffff168373ffffffffffffffffffffffffffffffffffffffff1614156105cf576040517f08c379a00000000000000000000000000000000000000000000000000000000081526004016105c690610a71565b60405180910390fd5b600073ffffffffffffffffffffffffffffffffffffffff168273ffffffffffffffffffffffffffffffffffffffff16141561063f576040517f08c379a000000000000000000000000000000000000000000000000000000000815260040161063690610a11565b60405180910390fd5b60008060008573ffffffffffffffffffffffffffffffffffffffff1673ffffffffffffffffffffffffffffffffffffffff168152602001908152602001600020549050818110156106c5576040517f08c379a00000000000000000000000000000000000000000000000000000000081526004016106bc90610a31565b60405180910390fd5b8181036000808673ffffffffffffffffffffffffffffffffffffffff1673ffffffffffffffffffffffffffffffffffffffff16815260200190815260200160002081905550816000808573ffffffffffffffffffffffffffffffffffffffff1673ffffffffffffffffffffffffffffffffffffffff16815260200190815260200160002060008282546107589190610b03565b925050819055508273ffffffffffffffffffffffffffffffffffffffff168473ffffffffffffffffffffffffffffffffffffffff167fddf252ad1be2c89b69c2b068fc378daa952ba7f163c4a11628f55a4df523b3ef846040516107bc9190610ab1565b60405180910390a350505050565b6000813590506107d981610de7565b92915050565b6000813590506107ee81610dfe565b92915050565b60006020828403121561080657600080fd5b6000610814848285016107ca565b91505092915050565b60008060006060848603121561083257600080fd5b6000610840868287016107ca565b9350506020610851868287016107ca565b9250506040610862868287016107df565b9150509250925092565b60006020828403121561087e57600080fd5b600061088c848285016107df565b91505092915050565b61089e81610b59565b82525050565b6108ad81610b6b565b82525050565b60006108be82610ae7565b6108c88185610af2565b93506108d8818560208601610bae565b6108e181610c71565b840191505092915050565b60006108f9602383610af2565b915061090482610c82565b604082019050919050565b600061091c602683610af2565b915061092782610cd1565b604082019050919050565b600061093f602e83610af2565b915061094a82610d20565b604082019050919050565b6000610962602583610af2565b915061096d82610d6f565b604082019050919050565b6000610985601f83610af2565b915061099082610dbe565b602082019050919050565b6109a481610b97565b82525050565b6109b381610ba1565b82525050565b60006020820190506109ce6000830184610895565b92915050565b60006020820190506109e960008301846108a4565b92915050565b60006020820190508181036000830152610a0981846108b3565b905092915050565b60006020820190508181036000830152610a2a816108ec565b9050919050565b60006020820190508181036000830152610a4a8161090f565b9050919050565b60006020820190508181036000830152610a6a81610932565b9050919050565b60006020820190508181036000830152610a8a81610955565b9050919050565b60006020820190508181036000830152610aaa81610978565b9050919050565b6000602082019050610ac6600083018461099b565b92915050565b6000602082019050610ae160008301846109aa565b92915050565b600081519050919050565b600082825260208201905092915050565b6000610b0e82610b97565b9150610b1983610b97565b9250827fffffffffffffffffffffffffffffffffffffffffffffffffffffffffffffffff03821115610b4e57610b4d610c13565b5b828201905092915050565b6000610b6482610b77565b9050919050565b60008115159050919050565b600073ffffffffffffffffffffffffffffffffffffffff82169050919050565b6000819050919050565b600060ff82169050919050565b60005b83811015610bcc578082015181840152602081019050610bb1565b83811115610bdb576000848401525b50505050565b60006002820490506001821680610bf957607f821691505b60208210811415610c0d57610c0c610c42565b5b50919050565b7f4e487b7100000000000000000000000000000000000000000000000000000000600052601160045260246000fd5b7f4e487b7100000000000000000000000000000000000000000000000000000000600052602260045260246000fd5b6000601f19601f8301169050919050565b7f45524332303a207472616e7366657220746f20746865207a65726f206164647260008201527f6573730000000000000000000000000000000000000000000000000000000000602082015250565b7f45524332303a207472616e7366657220616d6f756e742065786365656473206260008201527f616c616e63650000000000000000000000000000000000000000000000000000602082015250565b7f4e6f207469656e6573207065726d69736f73207061726120656a65637574617260008201527f20657374612066756e63696f6e2e000000000000000000000000000000000000602082015250565b7f45524332303a207472616e736665722066726f6d20746865207a65726f20616460008201527f6472657373000000000000000000000000000000000000000000000000000000602082015250565b7f45524332303a206d696e7420746f20746865207a65726f206164647265737300600082015250565b610df081610b59565b8114610dfb57600080fd5b50565b610e0781610b97565b8114610e1257600080fd5b5056fea2646970667358221220077438dddc62fdd0a34c69ad585d5f216b33bef55520255da15a74fa3988f5e664736f6c63430008040033",
  "linkReferences": {},
  "deployedLinkReferences": {}
}