{
  "_format": "hh-sol-artifact-1",
  "contractName": "Casino",
  "sourceName": "src/backend/contracts/Casino.sol",
  "abi": [
    {
      "inputs": [],
      "stateMutability": "nonpayable",
      "type": "constructor"
    },
    {
      "anonymous": false,
      "inputs": [
        {
          "indexed": true,
          "internalType": "address",
          "name": "previousOwner",
          "type": "address"
        },
        {
          "indexed": true,
          "internalType": "address",
          "name": "newOwner",
          "type": "address"
        }
      ],
      "name": "OwnershipTransferred",
      "type": "event"
    },
    {
      "anonymous": false,
      "inputs": [
        {
          "indexed": false,
          "internalType": "uint256",
          "name": "NumberWin",
          "type": "uint256"
        },
        {
          "indexed": false,
          "internalType": "bool",
          "name": "result",
          "type": "bool"
        },
        {
          "indexed": false,
          "internalType": "uint256",
          "name": "tokensEarned",
          "type": "uint256"
        }
      ],
      "name": "RouletteGame",
      "type": "event"
    },
    {
      "inputs": [],
      "name": "balanceEthersSC",
      "outputs": [
        {
          "internalType": "uint256",
          "name": "",
          "type": "uint256"
        }
      ],
      "stateMutability": "view",
      "type": "function"
    },
    {
      "inputs": [
        {
          "internalType": "uint256",
          "name": "_numTokens",
          "type": "uint256"
        }
      ],
      "name": "compraTokens",
      "outputs": [],
      "stateMutability": "payable",
      "type": "function"
    },
    {
      "inputs": [
        {
          "internalType": "uint256",
          "name": "_numTokens",
          "type": "uint256"
        }
      ],
      "name": "devolverTokens",
      "outputs": [],
      "stateMutability": "payable",
      "type": "function"
    },
    {
      "inputs": [
        {
          "internalType": "uint256",
          "name": "_start",
          "type": "uint256"
        },
        {
          "internalType": "uint256",
          "name": "_end",
          "type": "uint256"
        },
        {
          "internalType": "uint256",
          "name": "_tokensBet",
          "type": "uint256"
        }
      ],
      "name": "jugarRuleta",
      "outputs": [],
      "stateMutability": "nonpayable",
      "type": "function"
    },
    {
      "inputs": [],
      "name": "owner",
      "outputs": [
        {
          "internalType": "address",
          "name": "",
          "type": "address"
        }
      ],
      "stateMutability": "view",
      "type": "function"
    },
    {
      "inputs": [
        {
          "internalType": "uint256",
          "name": "_numTokens",
          "type": "uint256"
        }
      ],
      "name": "precioTokens",
      "outputs": [
        {
          "internalType": "uint256",
          "name": "",
          "type": "uint256"
        }
      ],
      "stateMutability": "pure",
      "type": "function"
    },
    {
      "inputs": [],
      "name": "renounceOwnership",
      "outputs": [],
      "stateMutability": "nonpayable",
      "type": "function"
    },
    {
      "inputs": [
        {
          "internalType": "uint256",
          "name": "_numEther",
          "type": "uint256"
        }
      ],
      "name": "retirarEth",
      "outputs": [],
      "stateMutability": "payable",
      "type": "function"
    },
    {
      "inputs": [],
      "name": "tokenAddress",
      "outputs": [
        {
          "internalType": "address",
          "name": "",
          "type": "address"
        }
      ],
      "stateMutability": "view",
      "type": "function"
    },
    {
      "inputs": [
        {
          "internalType": "address",
          "name": "_of",
          "type": "address"
        }
      ],
      "name": "tokenBalance",
      "outputs": [
        {
          "internalType": "uint256",
          "name": "",
          "type": "uint256"
        }
      ],
      "stateMutability": "view",
      "type": "function"
    },
    {
      "inputs": [
        {
          "internalType": "address",
          "name": "newOwner",
          "type": "address"
        }
      ],
      "name": "transferOwnership",
      "outputs": [],
      "stateMutability": "nonpayable",
      "type": "function"
    },
    {
      "inputs": [
        {
          "internalType": "address",
          "name": "_propietario",
          "type": "address"
        }
      ],
      "name": "tuHistorial",
      "outputs": [
        {
          "components": [
            {
              "internalType": "uint256",
              "name": "tokensBet",
              "type": "uint256"
            },
            {
              "internalType": "uint256",
              "name": "tokensEarned",
              "type": "uint256"
            },
            {
              "internalType": "string",
              "name": "game",
              "type": "string"
            }
          ],
          "internalType": "struct Casino.Bet[]",
          "name": "",
          "type": "tuple[]"
        }
      ],
      "stateMutability": "view",
      "type": "function"
    }
  ],
  "bytecode": "0x60806040523480156200001157600080fd5b506200003262000026620001c960201b60201c565b620001d160201b60201c565b604051620000409062000295565b6200004b9062000362565b604051809103906000f08015801562000068573d6000803e3d6000fd5b50600160006101000a81548173ffffffffffffffffffffffffffffffffffffffff021916908373ffffffffffffffffffffffffffffffffffffffff160217905550600160009054906101000a900473ffffffffffffffffffffffffffffffffffffffff16600260006101000a81548173ffffffffffffffffffffffffffffffffffffffff021916908373ffffffffffffffffffffffffffffffffffffffff160217905550600160009054906101000a900473ffffffffffffffffffffffffffffffffffffffff1673ffffffffffffffffffffffffffffffffffffffff1663a0712d68620f42406040518263ffffffff1660e01b81526004016200016c919062000345565b602060405180830381600087803b1580156200018757600080fd5b505af11580156200019c573d6000803e3d6000fd5b505050506040513d601f19601f82011682018060405250810190620001c29190620002ba565b5062000440565b600033905090565b60008060009054906101000a900473ffffffffffffffffffffffffffffffffffffffff169050816000806101000a81548173ffffffffffffffffffffffffffffffffffffffff021916908373ffffffffffffffffffffffffffffffffffffffff1602179055508173ffffffffffffffffffffffffffffffffffffffff168173ffffffffffffffffffffffffffffffffffffffff167f8be0079c531659141344cd1fd0a4f28419497f9722a3daafe3b4186f6b6457e060405160405180910390a35050565b611212806200217d83390190565b600081519050620002b48162000426565b92915050565b600060208284031215620002cd57600080fd5b6000620002dd84828501620002a3565b91505092915050565b620002f181620003c0565b82525050565b60006200030660068362000399565b91506200031382620003d4565b602082019050919050565b60006200032d60038362000399565b91506200033a82620003fd565b602082019050919050565b60006020820190506200035c6000830184620002e6565b92915050565b600060408201905081810360008301526200037d81620002f7565b9050818103602083015262000392816200031e565b9050919050565b600082825260208201905092915050565b60008115159050919050565b6000819050919050565b6000620003cd82620003b6565b9050919050565b7f436173696e6f0000000000000000000000000000000000000000000000000000600082015250565b7f4341530000000000000000000000000000000000000000000000000000000000600082015250565b6200043181620003aa565b81146200043d57600080fd5b50565b611d2d80620004506000396000f3fe6080604052600436106100a75760003560e01c80639d76ea58116100645780639d76ea581461018c578063b934c384146101b7578063c29dd7c9146101e2578063df540967146101fe578063eedc966a1461023b578063f2fde38b14610278576100a7565b806321a10444146100ac5780632e95161c146100d55780633897b0bc146100f15780635f375c6c1461010d578063715018a61461014a5780638da5cb5b14610161575b600080fd5b3480156100b857600080fd5b506100d360048036038101906100ce91906114be565b6102a1565b005b6100ef60048036038101906100ea919061146c565b610740565b005b61010b6004803603810190610106919061146c565b610974565b005b34801561011957600080fd5b50610134600480360381019061012f919061146c565b610ace565b6040516101419190611850565b60405180910390f35b34801561015657600080fd5b5061015f610aea565b005b34801561016d57600080fd5b50610176610b72565b604051610183919061173c565b60405180910390f35b34801561019857600080fd5b506101a1610b9b565b6040516101ae919061173c565b60405180910390f35b3480156101c357600080fd5b506101cc610bc1565b6040516101d99190611850565b60405180910390f35b6101fc60048036038101906101f7919061146c565b610bdc565b005b34801561020a57600080fd5b506102256004803603810190610220919061141a565b610ea5565b604051610232919061178e565b60405180910390f35b34801561024757600080fd5b50610262600480360381019061025d919061141a565b610fe9565b60405161026f9190611850565b60405180910390f35b34801561028457600080fd5b5061029f600480360381019061029a919061141a565b61109d565b005b600160009054906101000a900473ffffffffffffffffffffffffffffffffffffffff1673ffffffffffffffffffffffffffffffffffffffff166370a08231336040518263ffffffff1660e01b81526004016102fc919061173c565b60206040518083038186803b15801561031457600080fd5b505afa158015610328573d6000803e3d6000fd5b505050506040513d601f19601f8201168201806040525081019061034c9190611495565b81111561035857600080fd5b6000811161036557600080fd5b6000600e4260405160200161037a9190611721565b6040516020818303038152906040528051906020012060001c61039d9190611a7e565b9050600080600160009054906101000a900473ffffffffffffffffffffffffffffffffffffffff1673ffffffffffffffffffffffffffffffffffffffff1663beabacc83330876040518463ffffffff1660e01b815260040161040193929190611757565b602060405180830381600087803b15801561041b57600080fd5b505af115801561042f573d6000803e3d6000fd5b505050506040513d601f19601f820116820180604052508101906104539190611443565b508483111580156104645750858310155b156106bc5760019050600083141561048a57600e846104839190611939565b915061049a565b6002846104979190611939565b91505b81600160009054906101000a900473ffffffffffffffffffffffffffffffffffffffff1673ffffffffffffffffffffffffffffffffffffffff166370a08231306040518263ffffffff1660e01b81526004016104f6919061173c565b60206040518083038186803b15801561050e57600080fd5b505afa158015610522573d6000803e3d6000fd5b505050506040513d601f19601f820116820180604052508101906105469190611495565b101561060957600160009054906101000a900473ffffffffffffffffffffffffffffffffffffffff1673ffffffffffffffffffffffffffffffffffffffff1663a0712d68620186a0846105999190611939565b6040518263ffffffff1660e01b81526004016105b59190611850565b602060405180830381600087803b1580156105cf57600080fd5b505af11580156105e3573d6000803e3d6000fd5b505050506040513d601f19601f820116820180604052508101906106079190611443565b505b600160009054906101000a900473ffffffffffffffffffffffffffffffffffffffff1673ffffffffffffffffffffffffffffffffffffffff1663beabacc83033856040518463ffffffff1660e01b815260040161066893929190611757565b602060405180830381600087803b15801561068257600080fd5b505af1158015610696573d6000803e3d6000fd5b505050506040513d601f19601f820116820180604052508101906106ba9190611443565b505b6106fd6040518060400160405280600781526020017f526f756c65746500000000000000000000000000000000000000000000000000815250858433611195565b7fd25d6b7f2fbc40564b21f40e1d506ff3d5276071da39d3def6b88f6ee8a396598382846040516107309392919061186b565b60405180910390a1505050505050565b60008111610783576040517f08c379a000000000000000000000000000000000000000000000000000000000815260040161077a906117d0565b60405180910390fd5b600160009054906101000a900473ffffffffffffffffffffffffffffffffffffffff1673ffffffffffffffffffffffffffffffffffffffff166370a08231336040518263ffffffff1660e01b81526004016107de919061173c565b60206040518083038186803b1580156107f657600080fd5b505afa15801561080a573d6000803e3d6000fd5b505050506040513d601f19601f8201168201806040525081019061082e9190611495565b811115610870576040517f08c379a000000000000000000000000000000000000000000000000000000000815260040161086790611830565b60405180910390fd5b600160009054906101000a900473ffffffffffffffffffffffffffffffffffffffff1673ffffffffffffffffffffffffffffffffffffffff1663beabacc83330846040518463ffffffff1660e01b81526004016108cf93929190611757565b602060405180830381600087803b1580156108e957600080fd5b505af11580156108fd573d6000803e3d6000fd5b505050506040513d601f19601f820116820180604052508101906109219190611443565b503373ffffffffffffffffffffffffffffffffffffffff166108fc61094583610ace565b9081150290604051600060405180830381858888f19350505050158015610970573d6000803e3d6000fd5b5050565b61097c611257565b73ffffffffffffffffffffffffffffffffffffffff1661099a610b72565b73ffffffffffffffffffffffffffffffffffffffff16146109f0576040517f08c379a00000000000000000000000000000000000000000000000000000000081526004016109e7906117f0565b60405180910390fd5b60008111610a33576040517f08c379a0000000000000000000000000000000000000000000000000000000008152600401610a2a906117d0565b60405180910390fd5b610a3b610bc1565b811115610a7d576040517f08c379a0000000000000000000000000000000000000000000000000000000008152600401610a7490611830565b60405180910390fd5b610a85610b72565b73ffffffffffffffffffffffffffffffffffffffff166108fc829081150290604051600060405180830381858888f19350505050158015610aca573d6000803e3d6000fd5b5050565b600066038d7ea4c6800082610ae39190611939565b9050919050565b610af2611257565b73ffffffffffffffffffffffffffffffffffffffff16610b10610b72565b73ffffffffffffffffffffffffffffffffffffffff1614610b66576040517f08c379a0000000000000000000000000000000000000000000000000000000008152600401610b5d906117f0565b60405180910390fd5b610b70600061125f565b565b60008060009054906101000a900473ffffffffffffffffffffffffffffffffffffffff16905090565b600260009054906101000a900473ffffffffffffffffffffffffffffffffffffffff1681565b6000670de0b6b3a764000047610bd79190611908565b905090565b610be581610ace565b341015610c27576040517f08c379a0000000000000000000000000000000000000000000000000000000008152600401610c1e90611810565b60405180910390fd5b80600160009054906101000a900473ffffffffffffffffffffffffffffffffffffffff1673ffffffffffffffffffffffffffffffffffffffff166370a08231306040518263ffffffff1660e01b8152600401610c83919061173c565b60206040518083038186803b158015610c9b57600080fd5b505afa158015610caf573d6000803e3d6000fd5b505050506040513d601f19601f82011682018060405250810190610cd39190611495565b1015610d9657600160009054906101000a900473ffffffffffffffffffffffffffffffffffffffff1673ffffffffffffffffffffffffffffffffffffffff1663a0712d68620186a083610d269190611939565b6040518263ffffffff1660e01b8152600401610d429190611850565b602060405180830381600087803b158015610d5c57600080fd5b505af1158015610d70573d6000803e3d6000fd5b505050506040513d601f19601f82011682018060405250810190610d949190611443565b505b3373ffffffffffffffffffffffffffffffffffffffff166108fc610db983610ace565b34610dc49190611993565b9081150290604051600060405180830381858888f19350505050158015610def573d6000803e3d6000fd5b50600160009054906101000a900473ffffffffffffffffffffffffffffffffffffffff1673ffffffffffffffffffffffffffffffffffffffff1663beabacc83033846040518463ffffffff1660e01b8152600401610e4f93929190611757565b602060405180830381600087803b158015610e6957600080fd5b505af1158015610e7d573d6000803e3d6000fd5b505050506040513d601f19601f82011682018060405250810190610ea19190611443565b5050565b6060600360008373ffffffffffffffffffffffffffffffffffffffff1673ffffffffffffffffffffffffffffffffffffffff168152602001908152602001600020805480602002602001604051908101604052809291908181526020016000905b82821015610fde57838290600052602060002090600302016040518060600160405290816000820154815260200160018201548152602001600282018054610f4d90611a42565b80601f0160208091040260200160405190810160405280929190818152602001828054610f7990611a42565b8015610fc65780601f10610f9b57610100808354040283529160200191610fc6565b820191906000526020600020905b815481529060010190602001808311610fa957829003601f168201915b50505050508152505081526020019060010190610f06565b505050509050919050565b6000600160009054906101000a900473ffffffffffffffffffffffffffffffffffffffff1673ffffffffffffffffffffffffffffffffffffffff166370a08231836040518263ffffffff1660e01b8152600401611046919061173c565b60206040518083038186803b15801561105e57600080fd5b505afa158015611072573d6000803e3d6000fd5b505050506040513d601f19601f820116820180604052508101906110969190611495565b9050919050565b6110a5611257565b73ffffffffffffffffffffffffffffffffffffffff166110c3610b72565b73ffffffffffffffffffffffffffffffffffffffff1614611119576040517f08c379a0000000000000000000000000000000000000000000000000000000008152600401611110906117f0565b60405180910390fd5b600073ffffffffffffffffffffffffffffffffffffffff168173ffffffffffffffffffffffffffffffffffffffff161415611189576040517f08c379a0000000000000000000000000000000000000000000000000000000008152600401611180906117b0565b60405180910390fd5b6111928161125f565b50565b60006040518060600160405280858152602001848152602001868152509050600360008373ffffffffffffffffffffffffffffffffffffffff1673ffffffffffffffffffffffffffffffffffffffff1681526020019081526020016000208190806001815401808255809150506001900390600052602060002090600302016000909190919091506000820151816000015560208201518160010155604082015181600201908051906020019061124d929190611323565b5050505050505050565b600033905090565b60008060009054906101000a900473ffffffffffffffffffffffffffffffffffffffff169050816000806101000a81548173ffffffffffffffffffffffffffffffffffffffff021916908373ffffffffffffffffffffffffffffffffffffffff1602179055508173ffffffffffffffffffffffffffffffffffffffff168173ffffffffffffffffffffffffffffffffffffffff167f8be0079c531659141344cd1fd0a4f28419497f9722a3daafe3b4186f6b6457e060405160405180910390a35050565b82805461132f90611a42565b90600052602060002090601f0160209004810192826113515760008555611398565b82601f1061136a57805160ff1916838001178555611398565b82800160010185558215611398579182015b8281111561139757825182559160200191906001019061137c565b5b5090506113a591906113a9565b5090565b5b808211156113c25760008160009055506001016113aa565b5090565b6000813590506113d581611cb2565b92915050565b6000815190506113ea81611cc9565b92915050565b6000813590506113ff81611ce0565b92915050565b60008151905061141481611ce0565b92915050565b60006020828403121561142c57600080fd5b600061143a848285016113c6565b91505092915050565b60006020828403121561145557600080fd5b6000611463848285016113db565b91505092915050565b60006020828403121561147e57600080fd5b600061148c848285016113f0565b91505092915050565b6000602082840312156114a757600080fd5b60006114b584828501611405565b91505092915050565b6000806000606084860312156114d357600080fd5b60006114e1868287016113f0565b93505060206114f2868287016113f0565b9250506040611503868287016113f0565b9150509250925092565b6000611519838361169c565b905092915050565b61152a816119c7565b82525050565b600061153b826118b2565b61154581856118d5565b935083602082028501611557856118a2565b8060005b858110156115935784840389528151611574858261150d565b945061157f836118c8565b925060208a0199505060018101905061155b565b50829750879550505050505092915050565b6115ae816119d9565b82525050565b60006115bf826118bd565b6115c981856118e6565b93506115d9818560208601611a0f565b6115e281611b3c565b840191505092915050565b60006115fa6026836118f7565b915061160582611b4d565b604082019050919050565b600061161d6030836118f7565b915061162882611b9c565b604082019050919050565b60006116406020836118f7565b915061164b82611beb565b602082019050919050565b60006116636029836118f7565b915061166e82611c14565b604082019050919050565b60006116866028836118f7565b915061169182611c63565b604082019050919050565b60006060830160008301516116b460008601826116ec565b5060208301516116c760208601826116ec565b50604083015184820360408601526116df82826115b4565b9150508091505092915050565b6116f581611a05565b82525050565b61170481611a05565b82525050565b61171b61171682611a05565b611a74565b82525050565b600061172d828461170a565b60208201915081905092915050565b60006020820190506117516000830184611521565b92915050565b600060608201905061176c6000830186611521565b6117796020830185611521565b61178660408301846116fb565b949350505050565b600060208201905081810360008301526117a88184611530565b905092915050565b600060208201905081810360008301526117c9816115ed565b9050919050565b600060208201905081810360008301526117e981611610565b9050919050565b6000602082019050818103600083015261180981611633565b9050919050565b6000602082019050818103600083015261182981611656565b9050919050565b6000602082019050818103600083015261184981611679565b9050919050565b600060208201905061186560008301846116fb565b92915050565b600060608201905061188060008301866116fb565b61188d60208301856115a5565b61189a60408301846116fb565b949350505050565b6000819050602082019050919050565b600081519050919050565b600081519050919050565b6000602082019050919050565b600082825260208201905092915050565b600082825260208201905092915050565b600082825260208201905092915050565b600061191382611a05565b915061191e83611a05565b92508261192e5761192d611ade565b5b828204905092915050565b600061194482611a05565b915061194f83611a05565b9250817fffffffffffffffffffffffffffffffffffffffffffffffffffffffffffffffff048311821515161561198857611987611aaf565b5b828202905092915050565b600061199e82611a05565b91506119a983611a05565b9250828210156119bc576119bb611aaf565b5b828203905092915050565b60006119d2826119e5565b9050919050565b60008115159050919050565b600073ffffffffffffffffffffffffffffffffffffffff82169050919050565b6000819050919050565b60005b83811015611a2d578082015181840152602081019050611a12565b83811115611a3c576000848401525b50505050565b60006002820490506001821680611a5a57607f821691505b60208210811415611a6e57611a6d611b0d565b5b50919050565b6000819050919050565b6000611a8982611a05565b9150611a9483611a05565b925082611aa457611aa3611ade565b5b828206905092915050565b7f4e487b7100000000000000000000000000000000000000000000000000000000600052601160045260246000fd5b7f4e487b7100000000000000000000000000000000000000000000000000000000600052601260045260246000fd5b7f4e487b7100000000000000000000000000000000000000000000000000000000600052602260045260246000fd5b6000601f19601f8301169050919050565b7f4f776e61626c653a206e6577206f776e657220697320746865207a65726f206160008201527f6464726573730000000000000000000000000000000000000000000000000000602082015250565b7f4e6563657369746173206465766f6c76657220756e206e756d65726f2064652060008201527f746f6b656e73206d61796f722061203000000000000000000000000000000000602082015250565b7f4f776e61626c653a2063616c6c6572206973206e6f7420746865206f776e6572600082015250565b7f436f6d707261206d656e6f7320746f6b656e73206f207061676120636f6e206d60008201527f6173206574686572730000000000000000000000000000000000000000000000602082015250565b7f4e6f207469656e6573206c6f7320746f6b656e7320717565206465736561732060008201527f6465766f6c766572000000000000000000000000000000000000000000000000602082015250565b611cbb816119c7565b8114611cc657600080fd5b50565b611cd2816119d9565b8114611cdd57600080fd5b50565b611ce981611a05565b8114611cf457600080fd5b5056fea26469706673582212201ff189510aeb5bd539742f5fa1ad577eea1108dc517018a88979aa8c9702904164736f6c6343000804003360806040523480156200001157600080fd5b5060405162001212380380620012128339818101604052810190620000379190620001d4565b81600290805190602001906200004f929190620000b2565b50806003908051906020019062000068929190620000b2565b5033600460006101000a81548173ffffffffffffffffffffffffffffffffffffffff021916908373ffffffffffffffffffffffffffffffffffffffff1602179055505050620003b7565b828054620000c090620002dc565b90600052602060002090601f016020900481019282620000e4576000855562000130565b82601f10620000ff57805160ff191683800117855562000130565b8280016001018555821562000130579182015b828111156200012f57825182559160200191906001019062000112565b5b5090506200013f919062000143565b5090565b5b808211156200015e57600081600090555060010162000144565b5090565b600062000179620001738462000270565b62000247565b9050828152602081018484840111156200019257600080fd5b6200019f848285620002a6565b509392505050565b600082601f830112620001b957600080fd5b8151620001cb84826020860162000162565b91505092915050565b60008060408385031215620001e857600080fd5b600083015167ffffffffffffffff8111156200020357600080fd5b6200021185828601620001a7565b925050602083015167ffffffffffffffff8111156200022f57600080fd5b6200023d85828601620001a7565b9150509250929050565b60006200025362000266565b905062000261828262000312565b919050565b6000604051905090565b600067ffffffffffffffff8211156200028e576200028d62000377565b5b6200029982620003a6565b9050602081019050919050565b60005b83811015620002c6578082015181840152602081019050620002a9565b83811115620002d6576000848401525b50505050565b60006002820490506001821680620002f557607f821691505b602082108114156200030c576200030b62000348565b5b50919050565b6200031d82620003a6565b810181811067ffffffffffffffff821117156200033f576200033e62000377565b5b80604052505050565b7f4e487b7100000000000000000000000000000000000000000000000000000000600052602260045260246000fd5b7f4e487b7100000000000000000000000000000000000000000000000000000000600052604160045260246000fd5b6000601f19601f8301169050919050565b610e4b80620003c76000396000f3fe608060405234801561001057600080fd5b50600436106100885760003560e01c80638da5cb5b1161005b5780638da5cb5b1461011757806395d89b4114610135578063a0712d6814610153578063beabacc81461018357610088565b806306fdde031461008d57806318160ddd146100ab578063313ce567146100c957806370a08231146100e7575b600080fd5b6100956101b3565b6040516100a291906109ef565b60405180910390f35b6100b3610245565b6040516100c09190610ab1565b60405180910390f35b6100d161024f565b6040516100de9190610acc565b60405180910390f35b61010160048036038101906100fc91906107f4565b610258565b60405161010e9190610ab1565b60405180910390f35b61011f6102a0565b60405161012c91906109b9565b60405180910390f35b61013d6102c6565b60405161014a91906109ef565b60405180910390f35b61016d6004803603810190610168919061086c565b610358565b60405161017a91906109d4565b60405180910390f35b61019d6004803603810190610198919061081d565b6103ff565b6040516101aa91906109d4565b60405180910390f35b6060600280546101c290610be1565b80601f01602080910402602001604051908101604052809291908181526020018280546101ee90610be1565b801561023b5780601f106102105761010080835404028352916020019161023b565b820191906000526020600020905b81548152906001019060200180831161021e57829003601f168201915b5050505050905090565b6000600154905090565b60006012905090565b60008060008373ffffffffffffffffffffffffffffffffffffffff1673ffffffffffffffffffffffffffffffffffffffff168152602001908152602001600020549050919050565b600460009054906101000a900473ffffffffffffffffffffffffffffffffffffffff1681565b6060600380546102d590610be1565b80601f016020809104026020016040519081016040528092919081815260200182805461030190610be1565b801561034e5780601f106103235761010080835404028352916020019161034e565b820191906000526020600020905b81548152906001019060200180831161033157829003601f168201915b5050505050905090565b600033600460009054906101000a900473ffffffffffffffffffffffffffffffffffffffff1673ffffffffffffffffffffffffffffffffffffffff168173ffffffffffffffffffffffffffffffffffffffff16146103eb576040517f08c379a00000000000000000000000000000000000000000000000000000000081526004016103e290610a51565b60405180910390fd5b6103f53384610417565b6001915050919050565b600061040c84848461055f565b600190509392505050565b600073ffffffffffffffffffffffffffffffffffffffff168273ffffffffffffffffffffffffffffffffffffffff161415610487576040517f08c379a000000000000000000000000000000000000000000000000000000000815260040161047e90610a91565b60405180910390fd5b80600160008282546104999190610b03565b92505081905550806000808473ffffffffffffffffffffffffffffffffffffffff1673ffffffffffffffffffffffffffffffffffffffff16815260200190815260200160002060008282546104ee9190610b03565b925050819055508173ffffffffffffffffffffffffffffffffffffffff16600073ffffffffffffffffffffffffffffffffffffffff167fddf252ad1be2c89b69c2b068fc378daa952ba7f163c4a11628f55a4df523b3ef836040516105539190610ab1565b60405180910390a35050565b600073ffffffffffffffffffffffffffffffffffffffff168373ffffffffffffffffffffffffffffffffffffffff1614156105cf576040517f08c379a00000000000000000000000000000000000000000000000000000000081526004016105c690610a71565b60405180910390fd5b600073ffffffffffffffffffffffffffffffffffffffff168273ffffffffffffffffffffffffffffffffffffffff16141561063f576040517f08c379a000000000000000000000000000000000000000000000000000000000815260040161063690610a11565b60405180910390fd5b60008060008573ffffffffffffffffffffffffffffffffffffffff1673ffffffffffffffffffffffffffffffffffffffff168152602001908152602001600020549050818110156106c5576040517f08c379a00000000000000000000000000000000000000000000000000000000081526004016106bc90610a31565b60405180910390fd5b8181036000808673ffffffffffffffffffffffffffffffffffffffff1673ffffffffffffffffffffffffffffffffffffffff16815260200190815260200160002081905550816000808573ffffffffffffffffffffffffffffffffffffffff1673ffffffffffffffffffffffffffffffffffffffff16815260200190815260200160002060008282546107589190610b03565b925050819055508273ffffffffffffffffffffffffffffffffffffffff168473ffffffffffffffffffffffffffffffffffffffff167fddf252ad1be2c89b69c2b068fc378daa952ba7f163c4a11628f55a4df523b3ef846040516107bc9190610ab1565b60405180910390a350505050565b6000813590506107d981610de7565b92915050565b6000813590506107ee81610dfe565b92915050565b60006020828403121561080657600080fd5b6000610814848285016107ca565b91505092915050565b60008060006060848603121561083257600080fd5b6000610840868287016107ca565b9350506020610851868287016107ca565b9250506040610862868287016107df565b9150509250925092565b60006020828403121561087e57600080fd5b600061088c848285016107df565b91505092915050565b61089e81610b59565b82525050565b6108ad81610b6b565b82525050565b60006108be82610ae7565b6108c88185610af2565b93506108d8818560208601610bae565b6108e181610c71565b840191505092915050565b60006108f9602383610af2565b915061090482610c82565b604082019050919050565b600061091c602683610af2565b915061092782610cd1565b604082019050919050565b600061093f602e83610af2565b915061094a82610d20565b604082019050919050565b6000610962602583610af2565b915061096d82610d6f565b604082019050919050565b6000610985601f83610af2565b915061099082610dbe565b602082019050919050565b6109a481610b97565b82525050565b6109b381610ba1565b82525050565b60006020820190506109ce6000830184610895565b92915050565b60006020820190506109e960008301846108a4565b92915050565b60006020820190508181036000830152610a0981846108b3565b905092915050565b60006020820190508181036000830152610a2a816108ec565b9050919050565b60006020820190508181036000830152610a4a8161090f565b9050919050565b60006020820190508181036000830152610a6a81610932565b9050919050565b60006020820190508181036000830152610a8a81610955565b9050919050565b60006020820190508181036000830152610aaa81610978565b9050919050565b6000602082019050610ac6600083018461099b565b92915050565b6000602082019050610ae160008301846109aa565b92915050565b600081519050919050565b600082825260208201905092915050565b6000610b0e82610b97565b9150610b1983610b97565b9250827fffffffffffffffffffffffffffffffffffffffffffffffffffffffffffffffff03821115610b4e57610b4d610c13565b5b828201905092915050565b6000610b6482610b77565b9050919050565b60008115159050919050565b600073ffffffffffffffffffffffffffffffffffffffff82169050919050565b6000819050919050565b600060ff82169050919050565b60005b83811015610bcc578082015181840152602081019050610bb1565b83811115610bdb576000848401525b50505050565b60006002820490506001821680610bf957607f821691505b60208210811415610c0d57610c0c610c42565b5b50919050565b7f4e487b7100000000000000000000000000000000000000000000000000000000600052601160045260246000fd5b7f4e487b7100000000000000000000000000000000000000000000000000000000600052602260045260246000fd5b6000601f19601f8301169050919050565b7f45524332303a207472616e7366657220746f20746865207a65726f206164647260008201527f6573730000000000000000000000000000000000000000000000000000000000602082015250565b7f45524332303a207472616e7366657220616d6f756e742065786365656473206260008201527f616c616e63650000000000000000000000000000000000000000000000000000602082015250565b7f4e6f207469656e6573207065726d69736f73207061726120656a65637574617260008201527f20657374612066756e63696f6e2e000000000000000000000000000000000000602082015250565b7f45524332303a207472616e736665722066726f6d20746865207a65726f20616460008201527f6472657373000000000000000000000000000000000000000000000000000000602082015250565b7f45524332303a206d696e7420746f20746865207a65726f206164647265737300600082015250565b610df081610b59565b8114610dfb57600080fd5b50565b610e0781610b97565b8114610e1257600080fd5b5056fea2646970667358221220077438dddc62fdd0a34c69ad585d5f216b33bef55520255da15a74fa3988f5e664736f6c63430008040033",
  "linkReferences": {},
  "deployedLinkReferences": {}
}