{
  "_format": "hh-sol-artifact-1",
  "contractName": "Casino",
  "sourceName": "src/backend/contracts/Casino.sol",
  "abi": [
    {
      "inputs": [],
      "stateMutability": "nonpayable",
      "type": "constructor"
    },
    {
      "anonymous": false,
      "inputs": [
        {
          "indexed": true,
          "internalType": "address",
          "name": "previousOwner",
          "type": "address"
        },
        {
          "indexed": true,
          "internalType": "address",
          "name": "newOwner",
          "type": "address"
        }
      ],
      "name": "OwnershipTransferred",
      "type": "event"
    },
    {
      "anonymous": false,
      "inputs": [
        {
          "indexed": false,
          "internalType": "uint256",
          "name": "NumberWin",
          "type": "uint256"
        },
        {
          "indexed": false,
          "internalType": "bool",
          "name": "result",
          "type": "bool"
        },
        {
          "indexed": false,
          "internalType": "uint256",
          "name": "tokensEarned",
          "type": "uint256"
        }
      ],
      "name": "RouletteGame",
      "type": "event"
    },
    {
      "inputs": [],
      "name": "balanceEthersSC",
      "outputs": [
        {
          "internalType": "uint256",
          "name": "",
          "type": "uint256"
        }
      ],
      "stateMutability": "view",
      "type": "function"
    },
    {
      "inputs": [
        {
          "internalType": "uint256",
          "name": "_numTokens",
          "type": "uint256"
        }
      ],
      "name": "compraTokens",
      "outputs": [],
      "stateMutability": "payable",
      "type": "function"
    },
    {
      "inputs": [
        {
          "internalType": "uint256",
          "name": "_numTokens",
          "type": "uint256"
        }
      ],
      "name": "devolverTokens",
      "outputs": [],
      "stateMutability": "payable",
      "type": "function"
    },
    {
      "inputs": [],
      "name": "getAdress",
      "outputs": [
        {
          "internalType": "address",
          "name": "",
          "type": "address"
        }
      ],
      "stateMutability": "view",
      "type": "function"
    },
    {
      "inputs": [
        {
          "internalType": "uint256",
          "name": "_start",
          "type": "uint256"
        },
        {
          "internalType": "uint256",
          "name": "_end",
          "type": "uint256"
        },
        {
          "internalType": "uint256",
          "name": "_tokensBet",
          "type": "uint256"
        }
      ],
      "name": "jugarRuleta",
      "outputs": [],
      "stateMutability": "nonpayable",
      "type": "function"
    },
    {
      "inputs": [],
      "name": "owner",
      "outputs": [
        {
          "internalType": "address",
          "name": "",
          "type": "address"
        }
      ],
      "stateMutability": "view",
      "type": "function"
    },
    {
      "inputs": [
        {
          "internalType": "uint256",
          "name": "_numTokens",
          "type": "uint256"
        }
      ],
      "name": "precioTokens",
      "outputs": [
        {
          "internalType": "uint256",
          "name": "",
          "type": "uint256"
        }
      ],
      "stateMutability": "pure",
      "type": "function"
    },
    {
      "inputs": [],
      "name": "renounceOwnership",
      "outputs": [],
      "stateMutability": "nonpayable",
      "type": "function"
    },
    {
      "inputs": [
        {
          "internalType": "uint256",
          "name": "_numEther",
          "type": "uint256"
        }
      ],
      "name": "retirarEth",
      "outputs": [],
      "stateMutability": "payable",
      "type": "function"
    },
    {
      "inputs": [],
      "name": "tokenAddress",
      "outputs": [
        {
          "internalType": "address",
          "name": "",
          "type": "address"
        }
      ],
      "stateMutability": "view",
      "type": "function"
    },
    {
      "inputs": [
        {
          "internalType": "address",
          "name": "_of",
          "type": "address"
        }
      ],
      "name": "tokenBalance",
      "outputs": [
        {
          "internalType": "uint256",
          "name": "",
          "type": "uint256"
        }
      ],
      "stateMutability": "view",
      "type": "function"
    },
    {
      "inputs": [
        {
          "internalType": "address",
          "name": "newOwner",
          "type": "address"
        }
      ],
      "name": "transferOwnership",
      "outputs": [],
      "stateMutability": "nonpayable",
      "type": "function"
    },
    {
      "inputs": [
        {
          "internalType": "address",
          "name": "_propietario",
          "type": "address"
        }
      ],
      "name": "tuHistorial",
      "outputs": [
        {
          "components": [
            {
              "internalType": "uint256",
              "name": "tokensBet",
              "type": "uint256"
            },
            {
              "internalType": "uint256",
              "name": "tokensEarned",
              "type": "uint256"
            },
            {
              "internalType": "string",
              "name": "game",
              "type": "string"
            }
          ],
          "internalType": "struct Casino.Bet[]",
          "name": "",
          "type": "tuple[]"
        }
      ],
      "stateMutability": "view",
      "type": "function"
    }
  ],
  "bytecode": "0x60806040523480156200001157600080fd5b506200003262000026620001c960201b60201c565b620001d160201b60201c565b604051620000409062000295565b6200004b9062000362565b604051809103906000f08015801562000068573d6000803e3d6000fd5b50600160006101000a81548173ffffffffffffffffffffffffffffffffffffffff021916908373ffffffffffffffffffffffffffffffffffffffff160217905550600160009054906101000a900473ffffffffffffffffffffffffffffffffffffffff16600260006101000a81548173ffffffffffffffffffffffffffffffffffffffff021916908373ffffffffffffffffffffffffffffffffffffffff160217905550600160009054906101000a900473ffffffffffffffffffffffffffffffffffffffff1673ffffffffffffffffffffffffffffffffffffffff1663a0712d68620f42406040518263ffffffff1660e01b81526004016200016c919062000345565b602060405180830381600087803b1580156200018757600080fd5b505af11580156200019c573d6000803e3d6000fd5b505050506040513d601f19601f82011682018060405250810190620001c29190620002ba565b5062000440565b600033905090565b60008060009054906101000a900473ffffffffffffffffffffffffffffffffffffffff169050816000806101000a81548173ffffffffffffffffffffffffffffffffffffffff021916908373ffffffffffffffffffffffffffffffffffffffff1602179055508173ffffffffffffffffffffffffffffffffffffffff168173ffffffffffffffffffffffffffffffffffffffff167f8be0079c531659141344cd1fd0a4f28419497f9722a3daafe3b4186f6b6457e060405160405180910390a35050565b61120e806200210f83390190565b600081519050620002b48162000426565b92915050565b600060208284031215620002cd57600080fd5b6000620002dd84828501620002a3565b91505092915050565b620002f181620003c0565b82525050565b60006200030660068362000399565b91506200031382620003d4565b602082019050919050565b60006200032d60038362000399565b91506200033a82620003fd565b602082019050919050565b60006020820190506200035c6000830184620002e6565b92915050565b600060408201905081810360008301526200037d81620002f7565b9050818103602083015262000392816200031e565b9050919050565b600082825260208201905092915050565b60008115159050919050565b6000819050919050565b6000620003cd82620003b6565b9050919050565b7f436173696e6f0000000000000000000000000000000000000000000000000000600082015250565b7f4341530000000000000000000000000000000000000000000000000000000000600082015250565b6200043181620003aa565b81146200043d57600080fd5b50565b611cbf80620004506000396000f3fe6080604052600436106100c25760003560e01c80638da5cb5b1161007f578063c29dd7c911610059578063c29dd7c914610228578063df54096714610244578063eedc966a14610281578063f2fde38b146102be576100c2565b80638da5cb5b146101a75780639d76ea58146101d2578063b934c384146101fd576100c2565b806321a10444146100c75780632e95161c146100f05780633897b0bc1461010c5780635f375c6c146101285780636b37d36214610165578063715018a614610190575b600080fd5b3480156100d357600080fd5b506100ee60048036038101906100e99190611450565b6102e7565b005b61010a600480360381019061010591906113fe565b610786565b005b610126600480360381019061012191906113fe565b6109ba565b005b34801561013457600080fd5b5061014f600480360381019061014a91906113fe565b610aa0565b60405161015c91906117e2565b60405180910390f35b34801561017157600080fd5b5061017a610abc565b60405161018791906116ce565b60405180910390f35b34801561019c57600080fd5b506101a5610ae6565b005b3480156101b357600080fd5b506101bc610afa565b6040516101c991906116ce565b60405180910390f35b3480156101de57600080fd5b506101e7610b23565b6040516101f491906116ce565b60405180910390f35b34801561020957600080fd5b50610212610b49565b60405161021f91906117e2565b60405180910390f35b610242600480360381019061023d91906113fe565b610b64565b005b34801561025057600080fd5b5061026b600480360381019061026691906113ac565b610e2d565b6040516102789190611720565b60405180910390f35b34801561028d57600080fd5b506102a860048036038101906102a391906113ac565b610f71565b6040516102b591906117e2565b60405180910390f35b3480156102ca57600080fd5b506102e560048036038101906102e091906113ac565b611025565b005b600160009054906101000a900473ffffffffffffffffffffffffffffffffffffffff1673ffffffffffffffffffffffffffffffffffffffff166370a08231336040518263ffffffff1660e01b815260040161034291906116ce565b60206040518083038186803b15801561035a57600080fd5b505afa15801561036e573d6000803e3d6000fd5b505050506040513d601f19601f820116820180604052508101906103929190611427565b81111561039e57600080fd5b600081116103ab57600080fd5b6000600e426040516020016103c091906116b3565b6040516020818303038152906040528051906020012060001c6103e39190611a10565b9050600080600160009054906101000a900473ffffffffffffffffffffffffffffffffffffffff1673ffffffffffffffffffffffffffffffffffffffff1663beabacc83330876040518463ffffffff1660e01b8152600401610447939291906116e9565b602060405180830381600087803b15801561046157600080fd5b505af1158015610475573d6000803e3d6000fd5b505050506040513d601f19601f8201168201806040525081019061049991906113d5565b508483111580156104aa5750858310155b15610702576001905060008314156104d057600e846104c991906118cb565b91506104e0565b6002846104dd91906118cb565b91505b81600160009054906101000a900473ffffffffffffffffffffffffffffffffffffffff1673ffffffffffffffffffffffffffffffffffffffff166370a08231306040518263ffffffff1660e01b815260040161053c91906116ce565b60206040518083038186803b15801561055457600080fd5b505afa158015610568573d6000803e3d6000fd5b505050506040513d601f19601f8201168201806040525081019061058c9190611427565b101561064f57600160009054906101000a900473ffffffffffffffffffffffffffffffffffffffff1673ffffffffffffffffffffffffffffffffffffffff1663a0712d68620186a0846105df91906118cb565b6040518263ffffffff1660e01b81526004016105fb91906117e2565b602060405180830381600087803b15801561061557600080fd5b505af1158015610629573d6000803e3d6000fd5b505050506040513d601f19601f8201168201806040525081019061064d91906113d5565b505b600160009054906101000a900473ffffffffffffffffffffffffffffffffffffffff1673ffffffffffffffffffffffffffffffffffffffff1663beabacc83033856040518463ffffffff1660e01b81526004016106ae939291906116e9565b602060405180830381600087803b1580156106c857600080fd5b505af11580156106dc573d6000803e3d6000fd5b505050506040513d601f19601f8201168201806040525081019061070091906113d5565b505b6107436040518060400160405280600781526020017f526f756c657465000000000000000000000000000000000000000000000000008152508584336110a9565b7fd25d6b7f2fbc40564b21f40e1d506ff3d5276071da39d3def6b88f6ee8a39659838284604051610776939291906117fd565b60405180910390a1505050505050565b600081116107c9576040517f08c379a00000000000000000000000000000000000000000000000000000000081526004016107c090611762565b60405180910390fd5b600160009054906101000a900473ffffffffffffffffffffffffffffffffffffffff1673ffffffffffffffffffffffffffffffffffffffff166370a08231336040518263ffffffff1660e01b815260040161082491906116ce565b60206040518083038186803b15801561083c57600080fd5b505afa158015610850573d6000803e3d6000fd5b505050506040513d601f19601f820116820180604052508101906108749190611427565b8111156108b6576040517f08c379a00000000000000000000000000000000000000000000000000000000081526004016108ad906117c2565b60405180910390fd5b600160009054906101000a900473ffffffffffffffffffffffffffffffffffffffff1673ffffffffffffffffffffffffffffffffffffffff1663beabacc83330846040518463ffffffff1660e01b8152600401610915939291906116e9565b602060405180830381600087803b15801561092f57600080fd5b505af1158015610943573d6000803e3d6000fd5b505050506040513d601f19601f8201168201806040525081019061096791906113d5565b503373ffffffffffffffffffffffffffffffffffffffff166108fc61098b83610aa0565b9081150290604051600060405180830381858888f193505050501580156109b6573d6000803e3d6000fd5b5050565b6109c261116b565b60008111610a05576040517f08c379a00000000000000000000000000000000000000000000000000000000081526004016109fc90611762565b60405180910390fd5b610a0d610b49565b811115610a4f576040517f08c379a0000000000000000000000000000000000000000000000000000000008152600401610a46906117c2565b60405180910390fd5b610a57610afa565b73ffffffffffffffffffffffffffffffffffffffff166108fc829081150290604051600060405180830381858888f19350505050158015610a9c573d6000803e3d6000fd5b5050565b600066038d7ea4c6800082610ab591906118cb565b9050919050565b6000600160009054906101000a900473ffffffffffffffffffffffffffffffffffffffff16905090565b610aee61116b565b610af860006111e9565b565b60008060009054906101000a900473ffffffffffffffffffffffffffffffffffffffff16905090565b600260009054906101000a900473ffffffffffffffffffffffffffffffffffffffff1681565b6000670de0b6b3a764000047610b5f919061189a565b905090565b610b6d81610aa0565b341015610baf576040517f08c379a0000000000000000000000000000000000000000000000000000000008152600401610ba6906117a2565b60405180910390fd5b80600160009054906101000a900473ffffffffffffffffffffffffffffffffffffffff1673ffffffffffffffffffffffffffffffffffffffff166370a08231306040518263ffffffff1660e01b8152600401610c0b91906116ce565b60206040518083038186803b158015610c2357600080fd5b505afa158015610c37573d6000803e3d6000fd5b505050506040513d601f19601f82011682018060405250810190610c5b9190611427565b1015610d1e57600160009054906101000a900473ffffffffffffffffffffffffffffffffffffffff1673ffffffffffffffffffffffffffffffffffffffff1663a0712d68620186a083610cae91906118cb565b6040518263ffffffff1660e01b8152600401610cca91906117e2565b602060405180830381600087803b158015610ce457600080fd5b505af1158015610cf8573d6000803e3d6000fd5b505050506040513d601f19601f82011682018060405250810190610d1c91906113d5565b505b3373ffffffffffffffffffffffffffffffffffffffff166108fc610d4183610aa0565b34610d4c9190611925565b9081150290604051600060405180830381858888f19350505050158015610d77573d6000803e3d6000fd5b50600160009054906101000a900473ffffffffffffffffffffffffffffffffffffffff1673ffffffffffffffffffffffffffffffffffffffff1663beabacc83033846040518463ffffffff1660e01b8152600401610dd7939291906116e9565b602060405180830381600087803b158015610df157600080fd5b505af1158015610e05573d6000803e3d6000fd5b505050506040513d601f19601f82011682018060405250810190610e2991906113d5565b5050565b6060600360008373ffffffffffffffffffffffffffffffffffffffff1673ffffffffffffffffffffffffffffffffffffffff168152602001908152602001600020805480602002602001604051908101604052809291908181526020016000905b82821015610f6657838290600052602060002090600302016040518060600160405290816000820154815260200160018201548152602001600282018054610ed5906119d4565b80601f0160208091040260200160405190810160405280929190818152602001828054610f01906119d4565b8015610f4e5780601f10610f2357610100808354040283529160200191610f4e565b820191906000526020600020905b815481529060010190602001808311610f3157829003601f168201915b50505050508152505081526020019060010190610e8e565b505050509050919050565b6000600160009054906101000a900473ffffffffffffffffffffffffffffffffffffffff1673ffffffffffffffffffffffffffffffffffffffff166370a08231836040518263ffffffff1660e01b8152600401610fce91906116ce565b60206040518083038186803b158015610fe657600080fd5b505afa158015610ffa573d6000803e3d6000fd5b505050506040513d601f19601f8201168201806040525081019061101e9190611427565b9050919050565b61102d61116b565b600073ffffffffffffffffffffffffffffffffffffffff168173ffffffffffffffffffffffffffffffffffffffff16141561109d576040517f08c379a000000000000000000000000000000000000000000000000000000000815260040161109490611742565b60405180910390fd5b6110a6816111e9565b50565b60006040518060600160405280858152602001848152602001868152509050600360008373ffffffffffffffffffffffffffffffffffffffff1673ffffffffffffffffffffffffffffffffffffffff168152602001908152602001600020819080600181540180825580915050600190039060005260206000209060030201600090919091909150600082015181600001556020820151816001015560408201518160020190805190602001906111619291906112b5565b5050505050505050565b6111736112ad565b73ffffffffffffffffffffffffffffffffffffffff16611191610afa565b73ffffffffffffffffffffffffffffffffffffffff16146111e7576040517f08c379a00000000000000000000000000000000000000000000000000000000081526004016111de90611782565b60405180910390fd5b565b60008060009054906101000a900473ffffffffffffffffffffffffffffffffffffffff169050816000806101000a81548173ffffffffffffffffffffffffffffffffffffffff021916908373ffffffffffffffffffffffffffffffffffffffff1602179055508173ffffffffffffffffffffffffffffffffffffffff168173ffffffffffffffffffffffffffffffffffffffff167f8be0079c531659141344cd1fd0a4f28419497f9722a3daafe3b4186f6b6457e060405160405180910390a35050565b600033905090565b8280546112c1906119d4565b90600052602060002090601f0160209004810192826112e3576000855561132a565b82601f106112fc57805160ff191683800117855561132a565b8280016001018555821561132a579182015b8281111561132957825182559160200191906001019061130e565b5b509050611337919061133b565b5090565b5b8082111561135457600081600090555060010161133c565b5090565b60008135905061136781611c44565b92915050565b60008151905061137c81611c5b565b92915050565b60008135905061139181611c72565b92915050565b6000815190506113a681611c72565b92915050565b6000602082840312156113be57600080fd5b60006113cc84828501611358565b91505092915050565b6000602082840312156113e757600080fd5b60006113f58482850161136d565b91505092915050565b60006020828403121561141057600080fd5b600061141e84828501611382565b91505092915050565b60006020828403121561143957600080fd5b600061144784828501611397565b91505092915050565b60008060006060848603121561146557600080fd5b600061147386828701611382565b935050602061148486828701611382565b925050604061149586828701611382565b9150509250925092565b60006114ab838361162e565b905092915050565b6114bc81611959565b82525050565b60006114cd82611844565b6114d78185611867565b9350836020820285016114e985611834565b8060005b858110156115255784840389528151611506858261149f565b94506115118361185a565b925060208a019950506001810190506114ed565b50829750879550505050505092915050565b6115408161196b565b82525050565b60006115518261184f565b61155b8185611878565b935061156b8185602086016119a1565b61157481611ace565b840191505092915050565b600061158c602683611889565b915061159782611adf565b604082019050919050565b60006115af603083611889565b91506115ba82611b2e565b604082019050919050565b60006115d2602083611889565b91506115dd82611b7d565b602082019050919050565b60006115f5602983611889565b915061160082611ba6565b604082019050919050565b6000611618602883611889565b915061162382611bf5565b604082019050919050565b6000606083016000830151611646600086018261167e565b506020830151611659602086018261167e565b50604083015184820360408601526116718282611546565b9150508091505092915050565b61168781611997565b82525050565b61169681611997565b82525050565b6116ad6116a882611997565b611a06565b82525050565b60006116bf828461169c565b60208201915081905092915050565b60006020820190506116e360008301846114b3565b92915050565b60006060820190506116fe60008301866114b3565b61170b60208301856114b3565b611718604083018461168d565b949350505050565b6000602082019050818103600083015261173a81846114c2565b905092915050565b6000602082019050818103600083015261175b8161157f565b9050919050565b6000602082019050818103600083015261177b816115a2565b9050919050565b6000602082019050818103600083015261179b816115c5565b9050919050565b600060208201905081810360008301526117bb816115e8565b9050919050565b600060208201905081810360008301526117db8161160b565b9050919050565b60006020820190506117f7600083018461168d565b92915050565b6000606082019050611812600083018661168d565b61181f6020830185611537565b61182c604083018461168d565b949350505050565b6000819050602082019050919050565b600081519050919050565b600081519050919050565b6000602082019050919050565b600082825260208201905092915050565b600082825260208201905092915050565b600082825260208201905092915050565b60006118a582611997565b91506118b083611997565b9250826118c0576118bf611a70565b5b828204905092915050565b60006118d682611997565b91506118e183611997565b9250817fffffffffffffffffffffffffffffffffffffffffffffffffffffffffffffffff048311821515161561191a57611919611a41565b5b828202905092915050565b600061193082611997565b915061193b83611997565b92508282101561194e5761194d611a41565b5b828203905092915050565b600061196482611977565b9050919050565b60008115159050919050565b600073ffffffffffffffffffffffffffffffffffffffff82169050919050565b6000819050919050565b60005b838110156119bf5780820151818401526020810190506119a4565b838111156119ce576000848401525b50505050565b600060028204905060018216806119ec57607f821691505b60208210811415611a00576119ff611a9f565b5b50919050565b6000819050919050565b6000611a1b82611997565b9150611a2683611997565b925082611a3657611a35611a70565b5b828206905092915050565b7f4e487b7100000000000000000000000000000000000000000000000000000000600052601160045260246000fd5b7f4e487b7100000000000000000000000000000000000000000000000000000000600052601260045260246000fd5b7f4e487b7100000000000000000000000000000000000000000000000000000000600052602260045260246000fd5b6000601f19601f8301169050919050565b7f4f776e61626c653a206e6577206f776e657220697320746865207a65726f206160008201527f6464726573730000000000000000000000000000000000000000000000000000602082015250565b7f4e6563657369746173206465766f6c76657220756e206e756d65726f2064652060008201527f746f6b656e73206d61796f722061203000000000000000000000000000000000602082015250565b7f4f776e61626c653a2063616c6c6572206973206e6f7420746865206f776e6572600082015250565b7f436f6d707261206d656e6f7320746f6b656e73206f207061676120636f6e206d60008201527f6173206574686572730000000000000000000000000000000000000000000000602082015250565b7f4e6f207469656e6573206c6f7320746f6b656e7320717565206465736561732060008201527f6465766f6c766572000000000000000000000000000000000000000000000000602082015250565b611c4d81611959565b8114611c5857600080fd5b50565b611c648161196b565b8114611c6f57600080fd5b50565b611c7b81611997565b8114611c8657600080fd5b5056fea2646970667358221220b5813fe0fb90a00854fcd8bd026480f55ca1d1ebc48b6a33a54bccceb335b05664736f6c6343000804003360806040523480156200001157600080fd5b506040516200120e3803806200120e8339818101604052810190620000379190620001d4565b81600290805190602001906200004f929190620000b2565b50806003908051906020019062000068929190620000b2565b5033600460006101000a81548173ffffffffffffffffffffffffffffffffffffffff021916908373ffffffffffffffffffffffffffffffffffffffff1602179055505050620003b7565b828054620000c090620002dc565b90600052602060002090601f016020900481019282620000e4576000855562000130565b82601f10620000ff57805160ff191683800117855562000130565b8280016001018555821562000130579182015b828111156200012f57825182559160200191906001019062000112565b5b5090506200013f919062000143565b5090565b5b808211156200015e57600081600090555060010162000144565b5090565b600062000179620001738462000270565b62000247565b9050828152602081018484840111156200019257600080fd5b6200019f848285620002a6565b509392505050565b600082601f830112620001b957600080fd5b8151620001cb84826020860162000162565b91505092915050565b60008060408385031215620001e857600080fd5b600083015167ffffffffffffffff8111156200020357600080fd5b6200021185828601620001a7565b925050602083015167ffffffffffffffff8111156200022f57600080fd5b6200023d85828601620001a7565b9150509250929050565b60006200025362000266565b905062000261828262000312565b919050565b6000604051905090565b600067ffffffffffffffff8211156200028e576200028d62000377565b5b6200029982620003a6565b9050602081019050919050565b60005b83811015620002c6578082015181840152602081019050620002a9565b83811115620002d6576000848401525b50505050565b60006002820490506001821680620002f557607f821691505b602082108114156200030c576200030b62000348565b5b50919050565b6200031d82620003a6565b810181811067ffffffffffffffff821117156200033f576200033e62000377565b5b80604052505050565b7f4e487b7100000000000000000000000000000000000000000000000000000000600052602260045260246000fd5b7f4e487b7100000000000000000000000000000000000000000000000000000000600052604160045260246000fd5b6000601f19601f8301169050919050565b610e4780620003c76000396000f3fe608060405234801561001057600080fd5b50600436106100885760003560e01c80638da5cb5b1161005b5780638da5cb5b1461011757806395d89b4114610135578063a0712d6814610153578063beabacc81461018357610088565b806306fdde031461008d57806318160ddd146100ab578063313ce567146100c957806370a08231146100e7575b600080fd5b6100956101b3565b6040516100a291906109eb565b60405180910390f35b6100b3610245565b6040516100c09190610aad565b60405180910390f35b6100d161024f565b6040516100de9190610ac8565b60405180910390f35b61010160048036038101906100fc91906107f0565b610254565b60405161010e9190610aad565b60405180910390f35b61011f61029c565b60405161012c91906109b5565b60405180910390f35b61013d6102c2565b60405161014a91906109eb565b60405180910390f35b61016d60048036038101906101689190610868565b610354565b60405161017a91906109d0565b60405180910390f35b61019d60048036038101906101989190610819565b6103fb565b6040516101aa91906109d0565b60405180910390f35b6060600280546101c290610bdd565b80601f01602080910402602001604051908101604052809291908181526020018280546101ee90610bdd565b801561023b5780601f106102105761010080835404028352916020019161023b565b820191906000526020600020905b81548152906001019060200180831161021e57829003601f168201915b5050505050905090565b6000600154905090565b600090565b60008060008373ffffffffffffffffffffffffffffffffffffffff1673ffffffffffffffffffffffffffffffffffffffff168152602001908152602001600020549050919050565b600460009054906101000a900473ffffffffffffffffffffffffffffffffffffffff1681565b6060600380546102d190610bdd565b80601f01602080910402602001604051908101604052809291908181526020018280546102fd90610bdd565b801561034a5780601f1061031f5761010080835404028352916020019161034a565b820191906000526020600020905b81548152906001019060200180831161032d57829003601f168201915b5050505050905090565b600033600460009054906101000a900473ffffffffffffffffffffffffffffffffffffffff1673ffffffffffffffffffffffffffffffffffffffff168173ffffffffffffffffffffffffffffffffffffffff16146103e7576040517f08c379a00000000000000000000000000000000000000000000000000000000081526004016103de90610a4d565b60405180910390fd5b6103f13384610413565b6001915050919050565b600061040884848461055b565b600190509392505050565b600073ffffffffffffffffffffffffffffffffffffffff168273ffffffffffffffffffffffffffffffffffffffff161415610483576040517f08c379a000000000000000000000000000000000000000000000000000000000815260040161047a90610a8d565b60405180910390fd5b80600160008282546104959190610aff565b92505081905550806000808473ffffffffffffffffffffffffffffffffffffffff1673ffffffffffffffffffffffffffffffffffffffff16815260200190815260200160002060008282546104ea9190610aff565b925050819055508173ffffffffffffffffffffffffffffffffffffffff16600073ffffffffffffffffffffffffffffffffffffffff167fddf252ad1be2c89b69c2b068fc378daa952ba7f163c4a11628f55a4df523b3ef8360405161054f9190610aad565b60405180910390a35050565b600073ffffffffffffffffffffffffffffffffffffffff168373ffffffffffffffffffffffffffffffffffffffff1614156105cb576040517f08c379a00000000000000000000000000000000000000000000000000000000081526004016105c290610a6d565b60405180910390fd5b600073ffffffffffffffffffffffffffffffffffffffff168273ffffffffffffffffffffffffffffffffffffffff16141561063b576040517f08c379a000000000000000000000000000000000000000000000000000000000815260040161063290610a0d565b60405180910390fd5b60008060008573ffffffffffffffffffffffffffffffffffffffff1673ffffffffffffffffffffffffffffffffffffffff168152602001908152602001600020549050818110156106c1576040517f08c379a00000000000000000000000000000000000000000000000000000000081526004016106b890610a2d565b60405180910390fd5b8181036000808673ffffffffffffffffffffffffffffffffffffffff1673ffffffffffffffffffffffffffffffffffffffff16815260200190815260200160002081905550816000808573ffffffffffffffffffffffffffffffffffffffff1673ffffffffffffffffffffffffffffffffffffffff16815260200190815260200160002060008282546107549190610aff565b925050819055508273ffffffffffffffffffffffffffffffffffffffff168473ffffffffffffffffffffffffffffffffffffffff167fddf252ad1be2c89b69c2b068fc378daa952ba7f163c4a11628f55a4df523b3ef846040516107b89190610aad565b60405180910390a350505050565b6000813590506107d581610de3565b92915050565b6000813590506107ea81610dfa565b92915050565b60006020828403121561080257600080fd5b6000610810848285016107c6565b91505092915050565b60008060006060848603121561082e57600080fd5b600061083c868287016107c6565b935050602061084d868287016107c6565b925050604061085e868287016107db565b9150509250925092565b60006020828403121561087a57600080fd5b6000610888848285016107db565b91505092915050565b61089a81610b55565b82525050565b6108a981610b67565b82525050565b60006108ba82610ae3565b6108c48185610aee565b93506108d4818560208601610baa565b6108dd81610c6d565b840191505092915050565b60006108f5602383610aee565b915061090082610c7e565b604082019050919050565b6000610918602683610aee565b915061092382610ccd565b604082019050919050565b600061093b602e83610aee565b915061094682610d1c565b604082019050919050565b600061095e602583610aee565b915061096982610d6b565b604082019050919050565b6000610981601f83610aee565b915061098c82610dba565b602082019050919050565b6109a081610b93565b82525050565b6109af81610b9d565b82525050565b60006020820190506109ca6000830184610891565b92915050565b60006020820190506109e560008301846108a0565b92915050565b60006020820190508181036000830152610a0581846108af565b905092915050565b60006020820190508181036000830152610a26816108e8565b9050919050565b60006020820190508181036000830152610a468161090b565b9050919050565b60006020820190508181036000830152610a668161092e565b9050919050565b60006020820190508181036000830152610a8681610951565b9050919050565b60006020820190508181036000830152610aa681610974565b9050919050565b6000602082019050610ac26000830184610997565b92915050565b6000602082019050610add60008301846109a6565b92915050565b600081519050919050565b600082825260208201905092915050565b6000610b0a82610b93565b9150610b1583610b93565b9250827fffffffffffffffffffffffffffffffffffffffffffffffffffffffffffffffff03821115610b4a57610b49610c0f565b5b828201905092915050565b6000610b6082610b73565b9050919050565b60008115159050919050565b600073ffffffffffffffffffffffffffffffffffffffff82169050919050565b6000819050919050565b600060ff82169050919050565b60005b83811015610bc8578082015181840152602081019050610bad565b83811115610bd7576000848401525b50505050565b60006002820490506001821680610bf557607f821691505b60208210811415610c0957610c08610c3e565b5b50919050565b7f4e487b7100000000000000000000000000000000000000000000000000000000600052601160045260246000fd5b7f4e487b7100000000000000000000000000000000000000000000000000000000600052602260045260246000fd5b6000601f19601f8301169050919050565b7f45524332303a207472616e7366657220746f20746865207a65726f206164647260008201527f6573730000000000000000000000000000000000000000000000000000000000602082015250565b7f45524332303a207472616e7366657220616d6f756e742065786365656473206260008201527f616c616e63650000000000000000000000000000000000000000000000000000602082015250565b7f4e6f207469656e6573207065726d69736f73207061726120656a65637574617260008201527f20657374612066756e63696f6e2e000000000000000000000000000000000000602082015250565b7f45524332303a207472616e736665722066726f6d20746865207a65726f20616460008201527f6472657373000000000000000000000000000000000000000000000000000000602082015250565b7f45524332303a206d696e7420746f20746865207a65726f206164647265737300600082015250565b610dec81610b55565b8114610df757600080fd5b50565b610e0381610b93565b8114610e0e57600080fd5b5056fea26469706673582212201bb63779eff4374c6c1a27c5b3557add933f411b5a2ab957bf679d5ad4a63be364736f6c63430008040033",
  "linkReferences": {},
  "deployedLinkReferences": {}
}